:1000000022C0ADC6ACC6ABC651C6A9C6A8C6A7C657
:1000100026C6FEC5A4C6A3C6A2C6A1C6A0C69FC6C4
:100020009EC69DC69CC616C11DC123C129C12FC134
:1000300035C13BC100600079800079007A000D680D
:10004000007A007B800011241FBECFE5D4E0DEBF24
:10005000CDBFE4E3F0E040E017C0B591A591359144
:100060002591059107FD0CC095918591EF01F92F20
:10007000E82F05900D92A217B307D9F7FE0104C02F
:100080001D92A217B307E1F7E534F40731F7CED399
:060090005FC6F894FFCFEB
:0A009600C0F9A4B0999282F880909E
:1000A000813009F45AC020F0823009F4AEC001C199
:1000B000282F30E0F901EA59FF4F8081813009F0A3
:1000C000FAC062BFF901E459FF4F90819130C9F144
:1000D00018F09230D9F1F1C0F901E759FF4F2081B2
:1000E0002430D1F028F4213041F0223071F0E7C003
:1000F0002630C9F02730F1F0E2C083B7897F83BF93
:1001000083B7816083BF822F089593B79A7F93BF8F
:1001100093B7926093BF089593B79B7F93BF93B7B4
:10012000936093BF089593B79C7F93BF93B79460F8
:1001300093BF089593B79D7F93BF93B7956093BF87
:10014000089583B7876083BF892F089593B796601A
:1001500093BF93B79E7F93BF0895282F30E0F90196
:10016000EA59FF4F8081813009F0ABC060957095EE
:100170007DBD6CBDF901E459FF4F90819130C9F10B
:1001800018F09230D9F19FC0F901E759FF4F208153
:100190002430D1F028F4213041F0223071F095C0A4
:1001A0002630C9F02730F1F090C08EB5897F8EBD22
:1001B0008EB581608EBD822F08959EB59A7F9EBDBB
:1001C0009EB592609EBD08959EB59B7F9EBD9EB5D7
:1001D00093609EBD08959EB59C7F9EBD9EB5946024
:1001E0009EBD08959EB59D7F9EBD9EB595609EBDAA
:1001F00008958EB587608EBD892F08959EB596604F
:100200009EBD9EB59E7F9EBD0895282F30E0F901CA
:10021000EA59FF4F8081813009F059C0609564BD73
:10022000F901E459FF4F9081992329F0933008F4A4
:1002300051C080E00895F901E759FF4F2081422F16
:1002400050E0FA013197E730F10508F042C0ED5E69
:10025000FF4F099485B5897F85BD85B5816085BDD2
:10026000822F089595B59A7F95BD95B5926095BDFD
:10027000089595B59B7F95BD95B5936095BD0895FF
:1002800095B59C7F95BD95B5946095BD089595B540
:100290009D7F95BD95B5956095BD089595B59E7F5B
:1002A00095BD95B5966095BD089595B5976095BD3A
:1002B000089580E0089580E0089580E00895892FF2
:1002C000089580E0089580E00895892F089580E0E2
:0602D0000895892F089536
:1002D600BF92CF92DF92EF92FF920F931F93CF932D
:1002E600DF93CDB7DEB729970FB6F894DEBF0FBE02
:1002F600CDBF03E009831FEF1B8387E08A83CE010E
:10030600019629D209831B830F2EF6E0DF2EF02DEE
:10031600DA82CE0101961FD2EE24E394E9821B8293
:10032600EA82CE01019617D2E9821B826894FF24E5
:10033600F1F8FA82CE0101960ED2E9821B821A8268
:10034600CE01019608D2F9821B830F2EF5E0BF2E4F
:10035600F02DBA82CE010196FED1F9821B83FA8274
:10036600CE010196F8D109831B83FA82CE0101964C
:10037600F2D109831B836894CC24C2F8CA82CE01C9
:100386000196E9D109831B83BA82CE010196E3D196
:10039600F9821B830A83CE010196DDD109831B8373
:1003A600EA82CE010196D7D109831B830A83CE0147
:1003B6000196D1D109831B831A82CE010196CBD136
:1003C600F9821B83CA82CE010196C5D1F9821B83AD
:1003D600EA82CE010196BFD1F9821B831A82CE0131
:1003E6000196B9D1CE010496FC012D2D11922A95C4
:1003F600E9F7EE82DF8227E235E0398728873DD1AB
:1004060066E770E080E090E08BD465E770E081E01D
:1004160090E086D480917600809379008091750073
:100426008093780029960FB6F894DEBF0FBECDBF35
:10043600DF91CF911F910F91FF90EF90DF90CF90BA
:04044600BF900895C6
:10044A00CF9380917900CDEC8C9F812D11248695D4
:10045A00869586958C9F912D1124969596959695BD
:10046A00990F292F220F220F920F891B92D240E057
:10047A0060E083E034D241E064E082E030D241E0DF
:10048A0061E082E02CD241E060E082E028D28FE68F
:10049A0097E10197F1F700C00000809179008C9FE5
:1004AA00912D1124969596959695990F292F220F9D
:1004BA00220F920F891B6DD240E063E083E00FD2D6
:1004CA0041E060E083E00BD240E064E082E007D2E2
:1004DA0041E061E082E003D241E060E082E0FFD1E6
:1004EA008FE697E10197F1F700C00000809178004C
:1004FA008C9F812D11248695869586958C9F912DAA
:10050A001124969596959695990F292F220F220FC9
:10051A00920F891B3ED241E063E083E0E0D141E0E3
:10052A0060E083E0DCD141E064E082E0D8D140E0E1
:10053A0061E082E0D4D141E060E082E0D0D18FE690
:10054A0097E10197F1F700C00000809178008C9F35
:10055A00C12D1124C695C695C695CC0F9C2F990F0F
:10056A00990FC90F8C1B15D241E060E083E0B7D127
:10057A0041E064E082E0B3D141E061E082E0AFD1E2
:10058A0040E060E082E0ABD18FE697E10197F1F7B6
:08059A0000C00000CF9108959C
:1005A200CF93DF930F92CDB7DEB791E0998381307D
:1005B20009F118F08230D9F157C0AE014F5F5F4F99
:1005C20061E081E085D28981811150C02091730060
:1005D200309174002A30310538F42F5F3F4F309349
:1005E20074002093730047C010927400109273003D
:1005F20081E041C0AE014F5F5F4F62E081E068D2AF
:100602008981811135C020917100309172002A30A8
:10061200310538F42F5F3F4F309372002093710001
:100622002AC0109272001092710081E024C0AE01C3
:100632004F5F5F4F60E081E04BD2898181111AC028
:1006420020916F00309170002A30310538F42F5F0D
:100652003F4F3093700020936F000DC010927000D6
:1006620010926F0081E007C080E005C080E003C007
:0E06720080E001C080E00F90DF91CF910895ED
:10068000FC01892B09F464C0A081B0E08381A759E3
:10069000BF4F8C9384819581009709F45BC0A08142
:1006A000B0E0AA0FBB1FA05ABF4F8D939C938181CE
:1006B0008130D1F118F08230F1F14EC0908191304B
:1006C00079F018F09230E9F008958281813021F4B8
:1006D00089B7816089BF22C089B78E7F89BF1EC05C
:1006E0008FB58C7F8FBD8EB5877E8EBD8281811147
:1006F00004C089B78B7F89BF11C089B7846089BF67
:100700000DC085B5877B85BD8281811104C089B705
:100710008F7B89BF03C089B7806489BFA081B0E0A7
:10072000A459BF4F1C920DC0A081B0E0A459BF4F87
:1007300081E08C9306C0A081B0E0A459BF4F82E055
:100740008C93E081F0E0EA59FF4F81E080830895C7
:0C07500080E0089580E0089580E00895A6
:10075C00FC01892B09F460C08081823009F183305F
:10076C00E9F1813009F05AC092819F3F61F497B34F
:10077C0021E030E0018002C0220F331F0A94E2F71F
:10078C00292B27BB089597B321E030E0018002C0EC
:10079C00220F331F0A94E2F72095292327BB0895D3
:1007AC0082818F3F69F424B381E090E0018002C024
:1007BC00880F991F0A94E2F7822B84BB81E008957D
:1007CC0024B381E090E0018002C0880F991F0A9445
:1007DC00E2F78095822384BB81E0089582818F3F6C
:1007EC0069F421B381E090E0018002C0880F991F69
:1007FC000A94E2F7822B81BB81E0089521B381E05A
:10080C0090E0018002C0880F991F0A94E2F780954E
:10081C00822381BB81E0089580E0089580E00895F3
:10082C0054DD78940CDE80917A008111FBCF81E04D
:10083C00B2DE8130C1F4809178008B3330F480913A
:10084C0078008F5F809378000EC0109278008091B2
:10085C0079008B3330F4809179008F5F809379002D
:10086C0002C01092790082E096DE8130D1F4809142
:10087C007800882331F08091780081508093780043
:10088C0010C08BE38093780080917900882331F03D
:10089C008091790081508093790003C08BE3809321
:1008AC00790080E078DE813009F0BCCF809179004E
:1008BC0080937600809178008093750060E070E002
:1008CC0080E0E8DB41E066E083E008D041E067E0EF
:0C08DC0083E004D081E080937A00A4CF78
:1008E800823001F18330C9F1813009F051C04423CD
:1008F80061F028B381E090E002C0880F991F6A95E3
:10090800E2F7822B88BB81E0089528B381E090E06C
:1009180002C0880F991F6A95E2F78095822388BBE9
:1009280081E00895442361F025B381E090E002C09E
:10093800880F991F6A95E2F7822B85BB81E008959D
:1009480025B381E090E002C0880F991F6A95E2F70D
:100958008095822385BB81E00895442361F022B30A
:1009680081E090E002C0880F991F6A95E2F7822B18
:1009780082BB81E0089522B381E090E002C0880F35
:10098800991F6A95E2F78095822382BB81E00895DA
:0409980080E008955E
:10099C00CF9390E0A0E08A569F4FAF4FFC01C491DB
:1009AC00A7FDC081C0FF05C041E065E082E096DF95
:1009BC0004C040E065E082E091DFC1FF05C041E08A
:1009CC0062E082E08BDF04C040E062E082E086DF20
:1009DC00C2FF05C041E062E083E080DF04C040E07C
:1009EC0062E083E07BDFC3FF05C041E064E083E0AD
:1009FC0075DF04C040E064E083E070DFC4FF05C035
:100A0C0041E065E083E06ADF04C040E065E083E03C
:100A1C0065DFC5FF05C041E063E082E05FDF04C035
:100A2C0040E063E082E05ADFC6FF05C041E061E0D0
:100A3C0083E054DF04C040E061E083E04FDFCF91FE
:020A4C0008950B
:100A4E00809177008A3730F4809177008F5F8093A2
:100A5E00770008951092770080917800882331F006
:100A6E00809178008150809378000895809179006C
:100A7E00882349F0809179008150809379008BE32F
:100A8E0080937800089510927A0040E066E083E04B
:100A9E0024DF40E067E083E020DF809176008093E2
:100AAE007900809175008093780080E07BD0609112
:100ABE00790080E090E041D06091780081E090E094
:040ACE003CD008957B
:100AD2008230A9F0833021F1813099F586B390E01C
:100AE20002C0959587956A95E2F780FF04C081E080
:100AF200FA0180830895FA01108281E0089583B398
:100B020090E002C0959587956A95E2F780FF04C050
:100B120081E0FA0180830895FA01108281E008954C
:100B220080B390E002C0959587956A95E2F780FFC1
:100B320004C081E0FA0180830895FA01108281E005
:060B4200089580E0089513
:100B4800FF920F931F93CF93DF930F92CDB7DEB72A
:100B5800811524E09207E8F4F62E8C011982BE0173
:100B68006F5F7F4FDCD0811119C089818F1599F093
:100B78006F2DC801BED0811111C0BE016F5F7F4FBC
:100B8800C801CDD081110AC08981F81631F081E001
:100B980005C082E003C080E001C080E00F90DF91D3
:0A0BA800CF911F910F91FF90089567
:100BB200813079F018F08230B9F021C0E82FF0E0EE
:100BC200EA59FF4F80818130E1F493B7987F93BF58
:100BD2000895E82FF0E0EA59FF4F8081813099F4BF
:100BE2009EB5987F9EBD0895E82FF0E0EA59FF4F29
:100BF2008081813051F495B5987F95BD089580E04C
:0E0C0200089580E0089580E0089580E0089550
:100C10001F920F920FB60F9211242F933F934F9371
:100C20005F936F937F938F939F93AF93BF93EF9354
:100C3000FF93E0916000F09161000995FF91EF91C1
:100C4000BF91AF919F918F917F916F915F914F91E4
:0E0C50003F912F910F900FBE0F901F9018959F
:100C5E001F920F920FB60F9211242F933F934F9323
:100C6E005F936F937F938F939F93AF93BF93EF9306
:100C7E00FF93E0916200F09163000995FF91EF916F
:100C8E00BF91AF919F918F917F916F915F914F9196
:0E0C9E003F912F910F900FBE0F901F90189551
:100CAC001F920F920FB60F9211242F933F934F93D5
:100CBC005F936F937F938F939F93AF93BF93EF93B8
:100CCC00FF93E0916400F09165000995FF91EF911D
:100CDC00BF91AF919F918F917F916F915F914F9148
:0E0CEC003F912F910F900FBE0F901F90189503
:100CFA009C01211584E0380778F49CB3892F82700F
:100D0A0091FDFBCF3FBB2EBB6DBB9CB394609CBBDC
:0C0D1A009CB392609CBB089582E0089599
:100D26009C01211584E0380770F49CB3892F8270EA
:100D360091FDFBCF3FBB2EBB9CB391609CBB9DB38B
:0A0D4600FB019083089582E00895F8
:0E0D5000EC0107D005D0CE0105D0CE0104D0B5
:020D5E0050C97A
:020D60000895F4
:020D62000895F2
:020D64000895F0
:020D660095D91D
:010D68000189
:00000001FF
